{
  "_format": "hh-sol-artifact-1",
  "contractName": "BfcLiquidStaking",
  "sourceName": "contracts/BfcLiquidStaking.sol",
  "abi": [
    {
      "anonymous": false,
      "inputs": [
        {
          "indexed": false,
          "internalType": "uint8",
          "name": "version",
          "type": "uint8"
        }
      ],
      "name": "Initialized",
      "type": "event"
    },
    {
      "anonymous": false,
      "inputs": [
        {
          "indexed": true,
          "internalType": "address",
          "name": "previousOwner",
          "type": "address"
        },
        {
          "indexed": true,
          "internalType": "address",
          "name": "newOwner",
          "type": "address"
        }
      ],
      "name": "OwnershipTransferred",
      "type": "event"
    },
    {
      "anonymous": false,
      "inputs": [
        {
          "indexed": true,
          "internalType": "uint256",
          "name": "_amount",
          "type": "uint256"
        }
      ],
      "name": "Stake",
      "type": "event"
    },
    {
      "anonymous": false,
      "inputs": [
        {
          "indexed": true,
          "internalType": "uint256",
          "name": "_amount",
          "type": "uint256"
        }
      ],
      "name": "Unstake",
      "type": "event"
    },
    {
      "inputs": [],
      "name": "candidate",
      "outputs": [
        {
          "internalType": "address",
          "name": "",
          "type": "address"
        }
      ],
      "stateMutability": "view",
      "type": "function"
    },
    {
      "inputs": [],
      "name": "claim",
      "outputs": [],
      "stateMutability": "nonpayable",
      "type": "function"
    },
    {
      "inputs": [],
      "name": "claimUnstakedAmount",
      "outputs": [],
      "stateMutability": "nonpayable",
      "type": "function"
    },
    {
      "inputs": [
        {
          "internalType": "address",
          "name": "",
          "type": "address"
        }
      ],
      "name": "claimable",
      "outputs": [
        {
          "internalType": "uint256",
          "name": "",
          "type": "uint256"
        }
      ],
      "stateMutability": "view",
      "type": "function"
    },
    {
      "inputs": [],
      "name": "claimed",
      "outputs": [
        {
          "internalType": "bool",
          "name": "",
          "type": "bool"
        }
      ],
      "stateMutability": "view",
      "type": "function"
    },
    {
      "inputs": [
        {
          "internalType": "uint256",
          "name": "_amount",
          "type": "uint256"
        }
      ],
      "name": "createUnstakeRequest",
      "outputs": [],
      "stateMutability": "nonpayable",
      "type": "function"
    },
    {
      "inputs": [],
      "name": "getUnstakeRequestsLength",
      "outputs": [
        {
          "internalType": "uint256",
          "name": "",
          "type": "uint256"
        }
      ],
      "stateMutability": "view",
      "type": "function"
    },
    {
      "inputs": [],
      "name": "initialStake",
      "outputs": [],
      "stateMutability": "payable",
      "type": "function"
    },
    {
      "inputs": [
        {
          "internalType": "address",
          "name": "_stBFCAddr",
          "type": "address"
        },
        {
          "internalType": "address",
          "name": "_bfcStakingAddr",
          "type": "address"
        },
        {
          "internalType": "address",
          "name": "_candidateAddr",
          "type": "address"
        }
      ],
      "name": "initialize",
      "outputs": [],
      "stateMutability": "nonpayable",
      "type": "function"
    },
    {
      "inputs": [],
      "name": "initialized",
      "outputs": [
        {
          "internalType": "bool",
          "name": "",
          "type": "bool"
        }
      ],
      "stateMutability": "view",
      "type": "function"
    },
    {
      "inputs": [],
      "name": "owner",
      "outputs": [
        {
          "internalType": "address",
          "name": "",
          "type": "address"
        }
      ],
      "stateMutability": "view",
      "type": "function"
    },
    {
      "inputs": [],
      "name": "renounceOwnership",
      "outputs": [],
      "stateMutability": "nonpayable",
      "type": "function"
    },
    {
      "inputs": [
        {
          "internalType": "address",
          "name": "_candidate",
          "type": "address"
        }
      ],
      "name": "setCandidate",
      "outputs": [],
      "stateMutability": "nonpayable",
      "type": "function"
    },
    {
      "inputs": [],
      "name": "setClaimableState",
      "outputs": [],
      "stateMutability": "nonpayable",
      "type": "function"
    },
    {
      "inputs": [],
      "name": "spreadRewards",
      "outputs": [],
      "stateMutability": "nonpayable",
      "type": "function"
    },
    {
      "inputs": [],
      "name": "stake",
      "outputs": [],
      "stateMutability": "payable",
      "type": "function"
    },
    {
      "inputs": [],
      "name": "totalDistributedRewards",
      "outputs": [
        {
          "internalType": "uint256",
          "name": "",
          "type": "uint256"
        }
      ],
      "stateMutability": "view",
      "type": "function"
    },
    {
      "inputs": [],
      "name": "totalStaked",
      "outputs": [
        {
          "internalType": "uint256",
          "name": "",
          "type": "uint256"
        }
      ],
      "stateMutability": "view",
      "type": "function"
    },
    {
      "inputs": [
        {
          "internalType": "address",
          "name": "newOwner",
          "type": "address"
        }
      ],
      "name": "transferOwnership",
      "outputs": [],
      "stateMutability": "nonpayable",
      "type": "function"
    },
    {
      "inputs": [],
      "name": "unstake",
      "outputs": [],
      "stateMutability": "nonpayable",
      "type": "function"
    },
    {
      "inputs": [
        {
          "internalType": "uint256",
          "name": "",
          "type": "uint256"
        }
      ],
      "name": "unstakeRequests",
      "outputs": [
        {
          "internalType": "address",
          "name": "recipient",
          "type": "address"
        },
        {
          "internalType": "uint256",
          "name": "amount",
          "type": "uint256"
        },
        {
          "internalType": "uint256",
          "name": "requestTime",
          "type": "uint256"
        },
        {
          "internalType": "bool",
          "name": "requested",
          "type": "bool"
        }
      ],
      "stateMutability": "view",
      "type": "function"
    },
    {
      "inputs": [],
      "name": "unstakeRequestsFront",
      "outputs": [
        {
          "internalType": "uint256",
          "name": "",
          "type": "uint256"
        }
      ],
      "stateMutability": "view",
      "type": "function"
    },
    {
      "inputs": [],
      "name": "unstakeRequestsRear",
      "outputs": [
        {
          "internalType": "uint256",
          "name": "",
          "type": "uint256"
        }
      ],
      "stateMutability": "view",
      "type": "function"
    }
  ],
  "bytecode": "0x608060405234801561001057600080fd5b50611c1c806100206000396000f3fe60806040526004361061013f5760003560e01c80636c8381f8116100b6578063be864d681161006f578063be864d681461030c578063c0c53b8b1461032c578063e834a8341461034c578063f2fde38b1461036b578063f87975af1461038b578063fb23f235146103d757600080fd5b80636c8381f814610260578063715018a614610298578063817b1cd2146102ad5780638da5cb5b146102c35780639992d13e146102e1578063a87df832146102f657600080fd5b80633a4b66f1116101085780633a4b66f1146101d65780633adbeddd146101de578063402914f5146101f3578063499e4b02146102205780634e71d92d146102355780635a83d74c1461024a57600080fd5b80625b291a1461014457806307880b7f1461014e578063158ef93e1461016e5780631988415f1461019d5780632def6620146101c1575b600080fd5b61014c6103ec565b005b34801561015a57600080fd5b5061014c6101693660046116e0565b610608565b34801561017a57600080fd5b50606a546101889060ff1681565b60405190151581526020015b60405180910390f35b3480156101a957600080fd5b506101b3606c5481565b604051908152602001610194565b3480156101cd57600080fd5b5061014c610632565b61014c610804565b3480156101ea57600080fd5b5061014c61093b565b3480156101ff57600080fd5b506101b361020e3660046116e0565b606e6020526000908152604090205481565b34801561022c57600080fd5b5061014c610c1b565b34801561024157600080fd5b5061014c610cf7565b34801561025657600080fd5b506101b3606b5481565b34801561026c57600080fd5b50606754610280906001600160a01b031681565b6040516001600160a01b039091168152602001610194565b3480156102a457600080fd5b5061014c610ea6565b3480156102b957600080fd5b506101b360685481565b3480156102cf57600080fd5b506033546001600160a01b0316610280565b3480156102ed57600080fd5b5061014c610eba565b34801561030257600080fd5b506101b360695481565b34801561031857600080fd5b5061014c610327366004611704565b610fca565b34801561033857600080fd5b5061014c61034736600461171d565b611208565b34801561035857600080fd5b50606a5461018890610100900460ff1681565b34801561037757600080fd5b5061014c6103863660046116e0565b611372565b34801561039757600080fd5b506103ab6103a6366004611704565b6113eb565b604080516001600160a01b03909516855260208501939093529183015215156060820152608001610194565b3480156103e357600080fd5b506101b3611432565b6103f4611449565b6104216040518060400160405280600b81526020016a036b9b3973b30b63ab29d160ad1b815250346114a3565b34683635c9adc5dea00000146104905760405162461bcd60e51b815260206004820152602960248201527f4266634c69717569645374616b696e673a20696e76616c6964207472616e7366604482015268195c88185b5bdd5b9d60ba1b60648201526084015b60405180910390fd5b606654606754604051630e456b7f60e11b81526001600160a01b0391821660048201526000929190911690631c8ad6fe90602401602060405180830381865afa1580156104e1573d6000803e3d6000fd5b505050506040513d601f19601f820116820180604052508101906105059190611768565b60665460405163dae5659b60e01b81523360048201529192506000916001600160a01b039091169063dae5659b90602401602060405180830381865afa158015610553573d6000803e3d6000fd5b505050506040513d601f19601f820116820180604052508101906105779190611768565b6066546067546040516349df6eb360e01b81526001600160a01b039182166004820152683635c9adc5dea000006024820152604481018690526064810184905292935016906349df6eb390608401600060405180830381600087803b1580156105df57600080fd5b505af11580156105f3573d6000803e3d6000fd5b5050606a805460ff1916600117905550505050565b610610611449565b606780546001600160a01b0319166001600160a01b0392909216919091179055565b61063a611449565b606a54610100900460ff166106615760405162461bcd60e51b815260040161048790611781565b606b54606c546000825b8281101561071d57606d8181548110610686576106866117c2565b600091825260209091206003600490920201015460ff1661070b57606d81815481106106b4576106b46117c2565b906000526020600020906004020160010154826106d191906117ee565b91506001606d82815481106106e8576106e86117c2565b60009182526020909120600490910201600301805460ff19169115159190911790555b8061071581611807565b91505061066b565b504761073282683635c9adc5dea000006117ee565b111561078c5760405162461bcd60e51b8152602060048201526024808201527f4266634c69717569645374616b696e673a206e6f7420656e6f7567682062616c604482015263616e636560e01b6064820152608401610487565b60665460675460405163774bef4d60e01b81526001600160a01b0391821660048201526024810184905291169063774bef4d90604401600060405180830381600087803b1580156107dc57600080fd5b505af11580156107f0573d6000803e3d6000fd5b5050606a805461ff00191690555050505050565b606a5460ff166108265760405162461bcd60e51b815260040161048790611820565b6066546067546040516312e3a89960e31b81526001600160a01b039182166004820152346024820181905292919091169063971d44c890604401600060405180830381600087803b15801561087a57600080fd5b505af115801561088e573d6000803e3d6000fd5b5050505080606860008282546108a491906117ee565b9091555050606554604051630f38ca0d60e31b8152336004820152602481018390526001600160a01b03909116906379c6506890604401600060405180830381600087803b1580156108f557600080fd5b505af1158015610909573d6000803e3d6000fd5b50506040518392507f227a473b70d2f893cc7659219575c030a63b5743024fe1e0c1a680e708b1525a9150600090a250565b610943611449565b606a5460ff166109655760405162461bcd60e51b815260040161048790611820565b606654604051633f97be5160e01b81523060048201526000916001600160a01b031690633f97be5190602401600060405180830381865afa1580156109ae573d6000803e3d6000fd5b505050506040513d6000823e601f3d908101601f191682016040526109d691908101906119b7565b5050505050505050509150506000606560009054906101000a90046001600160a01b03166001600160a01b031663eef00da56040518163ffffffff1660e01b8152600401600060405180830381865afa158015610a37573d6000803e3d6000fd5b505050506040513d6000823e601f3d908101601f19168201604052610a5f9190810190611ac5565b90506000683635c9adc5dea0000060695460685485610a7e9190611afa565b610a889190611afa565b610a929190611afa565b905060005b8251811015610bfe576000838281518110610ab457610ab46117c2565b602002602001015190506000606854606560009054906101000a90046001600160a01b03166001600160a01b03166370a08231878681518110610af957610af96117c2565b60200260200101516040518263ffffffff1660e01b8152600401610b2c91906001600160a01b0391909116815260200190565b602060405180830381865afa158015610b49573d6000803e3d6000fd5b505050506040513d601f19601f82011682018060405250810190610b6d9190611768565b610b779086611b0d565b610b819190611b24565b606554604051630f38ca0d60e31b81526001600160a01b038581166004830152602482018490529293509116906379c6506890604401600060405180830381600087803b158015610bd157600080fd5b505af1158015610be5573d6000803e3d6000fd5b5050505050508080610bf690611807565b915050610a97565b508060696000828254610c1191906117ee565b9091555050505050565b610c23611449565b606a54610100900460ff1615610c855760405162461bcd60e51b815260206004820152602160248201527f4266634c69717569645374616b696e673a20616c726561647920636c61696d656044820152601960fa1b6064820152608401610487565b606654606754604051635fd8999960e11b81526001600160a01b03918216600482015291169063bfb1333290602401600060405180830381600087803b158015610cce57600080fd5b505af1158015610ce2573d6000803e3d6000fd5b5050606a805461ff0019166101001790555050565b606a5460ff16610d195760405162461bcd60e51b815260040161048790611820565b606f5460ff1615610d5d5760405162461bcd60e51b815260206004820152600e60248201526d4e6f2072652d656e7472616e637960901b6044820152606401610487565b606f805460ff19166001179055336000908152606e6020526040902054610dd45760405162461bcd60e51b815260206004820152602560248201527f4266634c69717569645374616b696e673a206e6f20636c61696d61626c6520616044820152641b5bdd5b9d60da1b6064820152608401610487565b336000818152606e6020526040808220805490839055905190929083908381818185875af1925050503d8060008114610e29576040519150601f19603f3d011682016040523d82523d6000602084013e610e2e565b606091505b5050905080610e985760405162461bcd60e51b815260206004820152603060248201527f4266634c69717569645374616b696e673a206661696c656420746f2073656e6460448201526f081d5b9cdd185ad95908185b5bdd5b9d60821b6064820152608401610487565b5050606f805460ff19169055565b610eae611449565b610eb860006114ec565b565b610ec2611449565b606a54610100900460ff16610ee95760405162461bcd60e51b815260040161048790611781565b606b54606c54815b81811015610fc55747606d8281548110610f0d57610f0d6117c2565b90600052602060002090600402016001015411610fc557606d8181548110610f3757610f376117c2565b906000526020600020906004020160010154606e6000606d8481548110610f6057610f606117c2565b600091825260208083206004909202909101546001600160a01b0316835282019290925260400181208054909190610f999084906117ee565b92505081905550610fb0606d606b54606c5461153e565b606b5580610fbd81611807565b915050610ef1565b505050565b606a5460ff16610fec5760405162461bcd60e51b815260040161048790611820565b606f5460ff16156110305760405162461bcd60e51b815260206004820152600e60248201526d4e6f2072652d656e7472616e637960901b6044820152606401610487565b606f805460ff191660011790556065546040516370a0823160e01b815233600482015282916001600160a01b0316906370a0823190602401602060405180830381865afa158015611085573d6000803e3d6000fd5b505050506040513d601f19601f820116820180604052508101906110a99190611768565b101561111d5760405162461bcd60e51b815260206004820152603b60248201527f4266634c69717569645374616b696e673a20756e7374616b6520616d6f756e7460448201527f206973206d6f7265207468616e2073744246432062616c616e636500000000006064820152608401610487565b606554604051633477cc1b60e21b8152336004820152602481018390526001600160a01b039091169063d1df306c90604401600060405180830381600087803b15801561116957600080fd5b505af115801561117d573d6000803e3d6000fd5b5050505080606860008282546111939190611afa565b90915550506040805160808101825233815260208101839052429181019190915260006060820152606c546111cc90606d9083906115dd565b606c5560405182907ff1f1db1ecefb0a90b3cd6a1903d29374b4a935df69fd25c7fc6ed397d3683c2690600090a25050606f805460ff19169055565b600054610100900460ff16158080156112285750600054600160ff909116105b806112425750303b158015611242575060005460ff166001145b6112a55760405162461bcd60e51b815260206004820152602e60248201527f496e697469616c697a61626c653a20636f6e747261637420697320616c72656160448201526d191e481a5b9a5d1a585b1a5e995960921b6064820152608401610487565b6000805460ff1916600117905580156112c8576000805461ff0019166101001790555b6112d061164b565b606580546001600160a01b038087166001600160a01b031992831617909255606680548684169083161790556067805492851692909116919091179055606a805461ffff19166101001790556000606b819055606c55801561136c576000805461ff0019169055604051600181527f7f26b83ff96e1f2b6a682f133852f6798a09c465da95921460cefb38474024989060200160405180910390a15b50505050565b61137a611449565b6001600160a01b0381166113df5760405162461bcd60e51b815260206004820152602660248201527f4f776e61626c653a206e6577206f776e657220697320746865207a65726f206160448201526564647265737360d01b6064820152608401610487565b6113e8816114ec565b50565b606d81815481106113fb57600080fd5b600091825260209091206004909102018054600182015460028301546003909301546001600160a01b039092169350919060ff1684565b6000606b54606c546114449190611afa565b905090565b6033546001600160a01b03163314610eb85760405162461bcd60e51b815260206004820181905260248201527f4f776e61626c653a2063616c6c6572206973206e6f7420746865206f776e65726044820152606401610487565b6114e882826040516024016114b9929190611b46565b60408051601f198184030181529190526020810180516001600160e01b0316632d839cb360e21b17905261167a565b5050565b603380546001600160a01b038381166001600160a01b0319831681179093556040519116919082907f8be0079c531659141344cd1fd0a4f28419497f9722a3daafe3b4186f6b6457e090600090a35050565b60008183106115805760405162461bcd60e51b815260206004820152600e60248201526d517565756520697320656d70747960901b6044820152606401610487565b838381548110611592576115926117c2565b60009182526020822060049091020180546001600160a01b031916815560018082018390556002820192909255600301805460ff191690556115d59084906117ee565b949350505050565b82546001808201855560008581526020808220865160049095020180546001600160a01b0319166001600160a01b03909516949094178455850151838301556040850151600284015560608501516003909301805460ff1916931515939093179092556115d59083906117ee565b600054610100900460ff166116725760405162461bcd60e51b815260040161048790611b9b565b610eb861169b565b80516a636f6e736f6c652e6c6f67602083016000808483855afa5050505050565b600054610100900460ff166116c25760405162461bcd60e51b815260040161048790611b9b565b610eb8336114ec565b6001600160a01b03811681146113e857600080fd5b6000602082840312156116f257600080fd5b81356116fd816116cb565b9392505050565b60006020828403121561171657600080fd5b5035919050565b60008060006060848603121561173257600080fd5b833561173d816116cb565b9250602084013561174d816116cb565b9150604084013561175d816116cb565b809150509250925092565b60006020828403121561177a57600080fd5b5051919050565b60208082526021908201527f4266634c69717569645374616b696e673a206e6f7420636c61696d65642079656040820152601d60fa1b606082015260800190565b634e487b7160e01b600052603260045260246000fd5b634e487b7160e01b600052601160045260246000fd5b80820180821115611801576118016117d8565b92915050565b600060018201611819576118196117d8565b5060010190565b6020808252602d908201527f4266634c69717569645374616b696e673a20636f6e7472616374206973206e6f60408201526c1d081a5b9a5d1a585b1a5e9959609a1b606082015260800190565b8051611878816116cb565b919050565b634e487b7160e01b600052604160045260246000fd5b604051601f8201601f1916810167ffffffffffffffff811182821017156118bc576118bc61187d565b604052919050565b600067ffffffffffffffff8211156118de576118de61187d565b5060051b60200190565b600082601f8301126118f957600080fd5b8151602061190e611909836118c4565b611893565b82815260059290921b8401810191818101908684111561192d57600080fd5b8286015b84811015611951578051611944816116cb565b8352918301918301611931565b509695505050505050565b600082601f83011261196d57600080fd5b8151602061197d611909836118c4565b82815260059290921b8401810191818101908684111561199c57600080fd5b8286015b8481101561195157805183529183019183016119a0565b60008060008060008060008060008060006101608c8e0312156119d957600080fd5b6119e28c61186d565b9a5060208c0151995060408c0151985060608c0151975060808c0151965060a08c015167ffffffffffffffff811115611a1a57600080fd5b611a268e828f016118e8565b96505060c08c015167ffffffffffffffff811115611a4357600080fd5b611a4f8e828f0161195c565b95505060e08c015167ffffffffffffffff811115611a6c57600080fd5b611a788e828f0161195c565b9450506101008c015192506101208c015191506101408c015167ffffffffffffffff811115611aa657600080fd5b611ab28e828f0161195c565b9150509295989b509295989b9093969950565b600060208284031215611ad757600080fd5b815167ffffffffffffffff811115611aee57600080fd5b6115d5848285016118e8565b81810381811115611801576118016117d8565b8082028115828204841417611801576118016117d8565b600082611b4157634e487b7160e01b600052601260045260246000fd5b500490565b604081526000835180604084015260005b81811015611b745760208187018101516060868401015201611b57565b506000606082850101526060601f19601f8301168401019150508260208301529392505050565b6020808252602b908201527f496e697469616c697a61626c653a20636f6e7472616374206973206e6f74206960408201526a6e697469616c697a696e6760a81b60608201526080019056fea26469706673582212208de70e3aae220cb856e283b8fbbe065bc4baf53d5af3091b0b8c92bf0ad9f4f064736f6c63430008120033",
  "linkReferences": {},
  "deployedLinkReferences": {}
}