{
  "_format": "hh-sol-artifact-1",
  "contractName": "Blk",
  "sourceName": "contracts/tokens/Blk.sol",
  "abi": [
    {
      "anonymous": false,
      "inputs": [
        {
          "indexed": true,
          "internalType": "address",
          "name": "owner",
          "type": "address"
        },
        {
          "indexed": true,
          "internalType": "address",
          "name": "spender",
          "type": "address"
        },
        {
          "indexed": false,
          "internalType": "uint256",
          "name": "value",
          "type": "uint256"
        }
      ],
      "name": "Approval",
      "type": "event"
    },
    {
      "anonymous": false,
      "inputs": [
        {
          "indexed": false,
          "internalType": "uint8",
          "name": "version",
          "type": "uint8"
        }
      ],
      "name": "Initialized",
      "type": "event"
    },
    {
      "anonymous": false,
      "inputs": [
        {
          "indexed": true,
          "internalType": "address",
          "name": "previousOwner",
          "type": "address"
        },
        {
          "indexed": true,
          "internalType": "address",
          "name": "newOwner",
          "type": "address"
        }
      ],
      "name": "OwnershipTransferred",
      "type": "event"
    },
    {
      "anonymous": false,
      "inputs": [
        {
          "indexed": true,
          "internalType": "address",
          "name": "from",
          "type": "address"
        },
        {
          "indexed": true,
          "internalType": "address",
          "name": "to",
          "type": "address"
        },
        {
          "indexed": false,
          "internalType": "uint256",
          "name": "value",
          "type": "uint256"
        }
      ],
      "name": "Transfer",
      "type": "event"
    },
    {
      "inputs": [
        {
          "internalType": "address",
          "name": "owner",
          "type": "address"
        },
        {
          "internalType": "address",
          "name": "spender",
          "type": "address"
        }
      ],
      "name": "allowance",
      "outputs": [
        {
          "internalType": "uint256",
          "name": "",
          "type": "uint256"
        }
      ],
      "stateMutability": "view",
      "type": "function"
    },
    {
      "inputs": [
        {
          "internalType": "address",
          "name": "spender",
          "type": "address"
        },
        {
          "internalType": "uint256",
          "name": "amount",
          "type": "uint256"
        }
      ],
      "name": "approve",
      "outputs": [
        {
          "internalType": "bool",
          "name": "",
          "type": "bool"
        }
      ],
      "stateMutability": "nonpayable",
      "type": "function"
    },
    {
      "inputs": [
        {
          "internalType": "address",
          "name": "account",
          "type": "address"
        }
      ],
      "name": "balanceOf",
      "outputs": [
        {
          "internalType": "uint256",
          "name": "",
          "type": "uint256"
        }
      ],
      "stateMutability": "view",
      "type": "function"
    },
    {
      "inputs": [
        {
          "internalType": "address",
          "name": "_account",
          "type": "address"
        },
        {
          "internalType": "uint256",
          "name": "_amount",
          "type": "uint256"
        }
      ],
      "name": "burnToken",
      "outputs": [],
      "stateMutability": "nonpayable",
      "type": "function"
    },
    {
      "inputs": [],
      "name": "decimals",
      "outputs": [
        {
          "internalType": "uint8",
          "name": "",
          "type": "uint8"
        }
      ],
      "stateMutability": "view",
      "type": "function"
    },
    {
      "inputs": [
        {
          "internalType": "address",
          "name": "spender",
          "type": "address"
        },
        {
          "internalType": "uint256",
          "name": "subtractedValue",
          "type": "uint256"
        }
      ],
      "name": "decreaseAllowance",
      "outputs": [
        {
          "internalType": "bool",
          "name": "",
          "type": "bool"
        }
      ],
      "stateMutability": "nonpayable",
      "type": "function"
    },
    {
      "inputs": [
        {
          "internalType": "address",
          "name": "spender",
          "type": "address"
        },
        {
          "internalType": "uint256",
          "name": "addedValue",
          "type": "uint256"
        }
      ],
      "name": "increaseAllowance",
      "outputs": [
        {
          "internalType": "bool",
          "name": "",
          "type": "bool"
        }
      ],
      "stateMutability": "nonpayable",
      "type": "function"
    },
    {
      "inputs": [],
      "name": "initialize",
      "outputs": [],
      "stateMutability": "nonpayable",
      "type": "function"
    },
    {
      "inputs": [
        {
          "internalType": "address",
          "name": "_account",
          "type": "address"
        },
        {
          "internalType": "uint256",
          "name": "_amount",
          "type": "uint256"
        }
      ],
      "name": "mintToken",
      "outputs": [],
      "stateMutability": "nonpayable",
      "type": "function"
    },
    {
      "inputs": [],
      "name": "name",
      "outputs": [
        {
          "internalType": "string",
          "name": "",
          "type": "string"
        }
      ],
      "stateMutability": "view",
      "type": "function"
    },
    {
      "inputs": [],
      "name": "owner",
      "outputs": [
        {
          "internalType": "address",
          "name": "",
          "type": "address"
        }
      ],
      "stateMutability": "view",
      "type": "function"
    },
    {
      "inputs": [],
      "name": "renounceOwnership",
      "outputs": [],
      "stateMutability": "nonpayable",
      "type": "function"
    },
    {
      "inputs": [
        {
          "internalType": "address",
          "name": "_stakeStBfcAddress",
          "type": "address"
        }
      ],
      "name": "setStakeStBfcAddress",
      "outputs": [],
      "stateMutability": "nonpayable",
      "type": "function"
    },
    {
      "inputs": [],
      "name": "stakeStBfcAddress",
      "outputs": [
        {
          "internalType": "address",
          "name": "",
          "type": "address"
        }
      ],
      "stateMutability": "view",
      "type": "function"
    },
    {
      "inputs": [],
      "name": "symbol",
      "outputs": [
        {
          "internalType": "string",
          "name": "",
          "type": "string"
        }
      ],
      "stateMutability": "view",
      "type": "function"
    },
    {
      "inputs": [],
      "name": "totalSupply",
      "outputs": [
        {
          "internalType": "uint256",
          "name": "",
          "type": "uint256"
        }
      ],
      "stateMutability": "view",
      "type": "function"
    },
    {
      "inputs": [
        {
          "internalType": "address",
          "name": "to",
          "type": "address"
        },
        {
          "internalType": "uint256",
          "name": "amount",
          "type": "uint256"
        }
      ],
      "name": "transfer",
      "outputs": [
        {
          "internalType": "bool",
          "name": "",
          "type": "bool"
        }
      ],
      "stateMutability": "nonpayable",
      "type": "function"
    },
    {
      "inputs": [
        {
          "internalType": "address",
          "name": "from",
          "type": "address"
        },
        {
          "internalType": "address",
          "name": "to",
          "type": "address"
        },
        {
          "internalType": "uint256",
          "name": "amount",
          "type": "uint256"
        }
      ],
      "name": "transferFrom",
      "outputs": [
        {
          "internalType": "bool",
          "name": "",
          "type": "bool"
        }
      ],
      "stateMutability": "nonpayable",
      "type": "function"
    },
    {
      "inputs": [
        {
          "internalType": "address",
          "name": "newOwner",
          "type": "address"
        }
      ],
      "name": "transferOwnership",
      "outputs": [],
      "stateMutability": "nonpayable",
      "type": "function"
    }
  ],
  "bytecode": "0x608060405234801561001057600080fd5b50611111806100206000396000f3fe608060405234801561001057600080fd5b50600436106101215760003560e01c8063715018a6116100ad578063a457c2d711610071578063a457c2d714610253578063a9059cbb14610266578063d1df306c14610279578063dd62ed3e1461028c578063f2fde38b1461029f57600080fd5b8063715018a61461021757806379c650681461021f5780638129fc1c146102325780638da5cb5b1461023a57806395d89b411461024b57600080fd5b806323b872dd116100f457806323b872dd1461018e57806325bd7d6e146101a1578063313ce567146101cc57806339509351146101db57806370a08231146101ee57600080fd5b806306fdde0314610126578063095ea7b31461014457806318160ddd146101675780631b1b1d7514610179575b600080fd5b61012e6102b2565b60405161013b9190610da1565b60405180910390f35b610157610152366004610e0b565b610344565b604051901515815260200161013b565b6035545b60405190815260200161013b565b61018c610187366004610e35565b61035e565b005b61015761019c366004610e57565b610388565b6097546101b4906001600160a01b031681565b6040516001600160a01b03909116815260200161013b565b6040516012815260200161013b565b6101576101e9366004610e0b565b6103ac565b61016b6101fc366004610e35565b6001600160a01b031660009081526033602052604090205490565b61018c6103ce565b61018c61022d366004610e0b565b6103e2565b61018c610423565b6065546001600160a01b03166101b4565b61012e61057c565b610157610261366004610e0b565b61058b565b610157610274366004610e0b565b610606565b61018c610287366004610e0b565b610614565b61016b61029a366004610e93565b610648565b61018c6102ad366004610e35565b610673565b6060603680546102c190610ec6565b80601f01602080910402602001604051908101604052809291908181526020018280546102ed90610ec6565b801561033a5780601f1061030f5761010080835404028352916020019161033a565b820191906000526020600020905b81548152906001019060200180831161031d57829003601f168201915b5050505050905090565b6000336103528185856106e9565b60019150505b92915050565b61036661080e565b609780546001600160a01b0319166001600160a01b0392909216919091179055565b600033610396858285610868565b6103a18585856108e2565b506001949350505050565b6000336103528185856103bf8383610648565b6103c99190610f00565b6106e9565b6103d661080e565b6103e06000610a8d565b565b6097546001600160a01b031633146104155760405162461bcd60e51b815260040161040c90610f21565b60405180910390fd5b61041f8282610adf565b5050565b600054610100900460ff16158080156104435750600054600160ff909116105b8061045d5750303b15801561045d575060005460ff166001145b6104c05760405162461bcd60e51b815260206004820152602e60248201527f496e697469616c697a61626c653a20636f6e747261637420697320616c72656160448201526d191e481a5b9a5d1a585b1a5e995960921b606482015260840161040c565b6000805460ff1916600117905580156104e3576000805461ff0019166101001790555b61052b6040518060400160405280600b81526020016a213637b1b5902a37b5b2b760a91b81525060405180604001604052806003815260200162424c4b60e81b815250610ba0565b610533610bd1565b8015610579576000805461ff0019169055604051600181527f7f26b83ff96e1f2b6a682f133852f6798a09c465da95921460cefb38474024989060200160405180910390a15b50565b6060603780546102c190610ec6565b600033816105998286610648565b9050838110156105f95760405162461bcd60e51b815260206004820152602560248201527f45524332303a2064656372656173656420616c6c6f77616e63652062656c6f77604482015264207a65726f60d81b606482015260840161040c565b6103a182868684036106e9565b6000336103528185856108e2565b6097546001600160a01b0316331461063e5760405162461bcd60e51b815260040161040c90610f21565b61041f8282610c00565b6001600160a01b03918216600090815260346020908152604080832093909416825291909152205490565b61067b61080e565b6001600160a01b0381166106e05760405162461bcd60e51b815260206004820152602660248201527f4f776e61626c653a206e6577206f776e657220697320746865207a65726f206160448201526564647265737360d01b606482015260840161040c565b61057981610a8d565b6001600160a01b03831661074b5760405162461bcd60e51b8152602060048201526024808201527f45524332303a20617070726f76652066726f6d20746865207a65726f206164646044820152637265737360e01b606482015260840161040c565b6001600160a01b0382166107ac5760405162461bcd60e51b815260206004820152602260248201527f45524332303a20617070726f766520746f20746865207a65726f206164647265604482015261737360f01b606482015260840161040c565b6001600160a01b0383811660008181526034602090815260408083209487168084529482529182902085905590518481527f8c5be1e5ebec7d5bd14f71427d1e84f3dd0314c0f7b2291e5b200ac8c7c3b92591015b60405180910390a3505050565b6065546001600160a01b031633146103e05760405162461bcd60e51b815260206004820181905260248201527f4f776e61626c653a2063616c6c6572206973206e6f7420746865206f776e6572604482015260640161040c565b60006108748484610648565b905060001981146108dc57818110156108cf5760405162461bcd60e51b815260206004820152601d60248201527f45524332303a20696e73756666696369656e7420616c6c6f77616e6365000000604482015260640161040c565b6108dc84848484036106e9565b50505050565b6001600160a01b0383166109465760405162461bcd60e51b815260206004820152602560248201527f45524332303a207472616e736665722066726f6d20746865207a65726f206164604482015264647265737360d81b606482015260840161040c565b6001600160a01b0382166109a85760405162461bcd60e51b815260206004820152602360248201527f45524332303a207472616e7366657220746f20746865207a65726f206164647260448201526265737360e81b606482015260840161040c565b6001600160a01b03831660009081526033602052604090205481811015610a205760405162461bcd60e51b815260206004820152602660248201527f45524332303a207472616e7366657220616d6f756e7420657863656564732062604482015265616c616e636560d01b606482015260840161040c565b6001600160a01b0380851660008181526033602052604080822086860390559286168082529083902080548601905591517fddf252ad1be2c89b69c2b068fc378daa952ba7f163c4a11628f55a4df523b3ef90610a809086815260200190565b60405180910390a36108dc565b606580546001600160a01b038381166001600160a01b0319831681179093556040519116919082907f8be0079c531659141344cd1fd0a4f28419497f9722a3daafe3b4186f6b6457e090600090a35050565b6001600160a01b038216610b355760405162461bcd60e51b815260206004820152601f60248201527f45524332303a206d696e7420746f20746865207a65726f206164647265737300604482015260640161040c565b8060356000828254610b479190610f00565b90915550506001600160a01b0382166000818152603360209081526040808320805486019055518481527fddf252ad1be2c89b69c2b068fc378daa952ba7f163c4a11628f55a4df523b3ef910160405180910390a35050565b600054610100900460ff16610bc75760405162461bcd60e51b815260040161040c90610f6c565b61041f8282610d31565b600054610100900460ff16610bf85760405162461bcd60e51b815260040161040c90610f6c565b6103e0610d71565b6001600160a01b038216610c605760405162461bcd60e51b815260206004820152602160248201527f45524332303a206275726e2066726f6d20746865207a65726f206164647265736044820152607360f81b606482015260840161040c565b6001600160a01b03821660009081526033602052604090205481811015610cd45760405162461bcd60e51b815260206004820152602260248201527f45524332303a206275726e20616d6f756e7420657863656564732062616c616e604482015261636560f01b606482015260840161040c565b6001600160a01b03831660008181526033602090815260408083208686039055603580548790039055518581529192917fddf252ad1be2c89b69c2b068fc378daa952ba7f163c4a11628f55a4df523b3ef9101610801565b505050565b600054610100900460ff16610d585760405162461bcd60e51b815260040161040c90610f6c565b6036610d64838261101b565b506037610d2c828261101b565b600054610100900460ff16610d985760405162461bcd60e51b815260040161040c90610f6c565b6103e033610a8d565b600060208083528351808285015260005b81811015610dce57858101830151858201604001528201610db2565b506000604082860101526040601f19601f8301168501019250505092915050565b80356001600160a01b0381168114610e0657600080fd5b919050565b60008060408385031215610e1e57600080fd5b610e2783610def565b946020939093013593505050565b600060208284031215610e4757600080fd5b610e5082610def565b9392505050565b600080600060608486031215610e6c57600080fd5b610e7584610def565b9250610e8360208501610def565b9150604084013590509250925092565b60008060408385031215610ea657600080fd5b610eaf83610def565b9150610ebd60208401610def565b90509250929050565b600181811c90821680610eda57607f821691505b602082108103610efa57634e487b7160e01b600052602260045260246000fd5b50919050565b8082018082111561035857634e487b7160e01b600052601160045260246000fd5b6020808252602b908201527f426c6b3a2063616c6c6572206973206e6f7420746865207374616b652073744260408201526a1190c818dbdb9d1c9858dd60aa1b606082015260800190565b6020808252602b908201527f496e697469616c697a61626c653a20636f6e7472616374206973206e6f74206960408201526a6e697469616c697a696e6760a81b606082015260800190565b634e487b7160e01b600052604160045260246000fd5b601f821115610d2c57600081815260208120601f850160051c81016020861015610ff45750805b601f850160051c820191505b8181101561101357828155600101611000565b505050505050565b815167ffffffffffffffff81111561103557611035610fb7565b611049816110438454610ec6565b84610fcd565b602080601f83116001811461107e57600084156110665750858301515b600019600386901b1c1916600185901b178555611013565b600085815260208120601f198616915b828110156110ad5788860151825594840194600190910190840161108e565b50858210156110cb5787850151600019600388901b60f8161c191681555b5050505050600190811b0190555056fea2646970667358221220fe91506fe7416296fd1cf3e9427710ddc03a7019d725e2da2a80ea64cb08372264736f6c63430008120033",
  "linkReferences": {},
  "deployedLinkReferences": {}
}