{
  "_format": "hh-sol-artifact-1",
  "contractName": "StakeStBfc",
  "sourceName": "contracts/StakeStBfc.sol",
  "abi": [
    {
      "anonymous": false,
      "inputs": [
        {
          "indexed": false,
          "internalType": "uint8",
          "name": "version",
          "type": "uint8"
        }
      ],
      "name": "Initialized",
      "type": "event"
    },
    {
      "anonymous": false,
      "inputs": [
        {
          "indexed": true,
          "internalType": "address",
          "name": "previousOwner",
          "type": "address"
        },
        {
          "indexed": true,
          "internalType": "address",
          "name": "newOwner",
          "type": "address"
        }
      ],
      "name": "OwnershipTransferred",
      "type": "event"
    },
    {
      "inputs": [],
      "name": "bfcLastMinted",
      "outputs": [
        {
          "internalType": "uint256",
          "name": "",
          "type": "uint256"
        }
      ],
      "stateMutability": "view",
      "type": "function"
    },
    {
      "inputs": [],
      "name": "bfcMintingPeriod",
      "outputs": [
        {
          "internalType": "uint256",
          "name": "",
          "type": "uint256"
        }
      ],
      "stateMutability": "view",
      "type": "function"
    },
    {
      "inputs": [],
      "name": "blk",
      "outputs": [
        {
          "internalType": "contract IERC20",
          "name": "",
          "type": "address"
        }
      ],
      "stateMutability": "view",
      "type": "function"
    },
    {
      "inputs": [],
      "name": "blkLastMinted",
      "outputs": [
        {
          "internalType": "uint256",
          "name": "",
          "type": "uint256"
        }
      ],
      "stateMutability": "view",
      "type": "function"
    },
    {
      "inputs": [],
      "name": "blkMintingPeriod",
      "outputs": [
        {
          "internalType": "uint256",
          "name": "",
          "type": "uint256"
        }
      ],
      "stateMutability": "view",
      "type": "function"
    },
    {
      "inputs": [],
      "name": "blkRewardAmount",
      "outputs": [
        {
          "internalType": "uint256",
          "name": "",
          "type": "uint256"
        }
      ],
      "stateMutability": "view",
      "type": "function"
    },
    {
      "inputs": [],
      "name": "claimBlk",
      "outputs": [],
      "stateMutability": "nonpayable",
      "type": "function"
    },
    {
      "inputs": [],
      "name": "claimStBfc",
      "outputs": [],
      "stateMutability": "nonpayable",
      "type": "function"
    },
    {
      "inputs": [],
      "name": "claimUnstaked",
      "outputs": [],
      "stateMutability": "nonpayable",
      "type": "function"
    },
    {
      "inputs": [],
      "name": "distributeBlk",
      "outputs": [],
      "stateMutability": "nonpayable",
      "type": "function"
    },
    {
      "inputs": [],
      "name": "distributeStBfc",
      "outputs": [],
      "stateMutability": "nonpayable",
      "type": "function"
    },
    {
      "inputs": [
        {
          "internalType": "address",
          "name": "_blk",
          "type": "address"
        },
        {
          "internalType": "address",
          "name": "_stBfc",
          "type": "address"
        }
      ],
      "name": "initialize",
      "outputs": [],
      "stateMutability": "nonpayable",
      "type": "function"
    },
    {
      "inputs": [],
      "name": "owner",
      "outputs": [
        {
          "internalType": "address",
          "name": "",
          "type": "address"
        }
      ],
      "stateMutability": "view",
      "type": "function"
    },
    {
      "inputs": [],
      "name": "renounceOwnership",
      "outputs": [],
      "stateMutability": "nonpayable",
      "type": "function"
    },
    {
      "inputs": [
        {
          "internalType": "address",
          "name": "",
          "type": "address"
        }
      ],
      "name": "rewardAmountBfc",
      "outputs": [
        {
          "internalType": "uint256",
          "name": "",
          "type": "uint256"
        }
      ],
      "stateMutability": "view",
      "type": "function"
    },
    {
      "inputs": [
        {
          "internalType": "address",
          "name": "",
          "type": "address"
        }
      ],
      "name": "rewardAmountBlk",
      "outputs": [
        {
          "internalType": "uint256",
          "name": "",
          "type": "uint256"
        }
      ],
      "stateMutability": "view",
      "type": "function"
    },
    {
      "inputs": [
        {
          "internalType": "uint256",
          "name": "_period",
          "type": "uint256"
        }
      ],
      "name": "setBfcMintingPeriod",
      "outputs": [],
      "stateMutability": "nonpayable",
      "type": "function"
    },
    {
      "inputs": [
        {
          "internalType": "uint256",
          "name": "_period",
          "type": "uint256"
        }
      ],
      "name": "setBlkMintingPeriod",
      "outputs": [],
      "stateMutability": "nonpayable",
      "type": "function"
    },
    {
      "inputs": [
        {
          "internalType": "uint256",
          "name": "_amount",
          "type": "uint256"
        }
      ],
      "name": "setBlkRewardAmount",
      "outputs": [],
      "stateMutability": "nonpayable",
      "type": "function"
    },
    {
      "inputs": [
        {
          "internalType": "uint256",
          "name": "_period",
          "type": "uint256"
        }
      ],
      "name": "setUnstakePeriod",
      "outputs": [],
      "stateMutability": "nonpayable",
      "type": "function"
    },
    {
      "inputs": [],
      "name": "stBfc",
      "outputs": [
        {
          "internalType": "contract IERC20",
          "name": "",
          "type": "address"
        }
      ],
      "stateMutability": "view",
      "type": "function"
    },
    {
      "inputs": [
        {
          "internalType": "uint256",
          "name": "_amount",
          "type": "uint256"
        }
      ],
      "name": "stake",
      "outputs": [],
      "stateMutability": "nonpayable",
      "type": "function"
    },
    {
      "inputs": [
        {
          "internalType": "address",
          "name": "",
          "type": "address"
        }
      ],
      "name": "stakedAmount",
      "outputs": [
        {
          "internalType": "uint256",
          "name": "",
          "type": "uint256"
        }
      ],
      "stateMutability": "view",
      "type": "function"
    },
    {
      "inputs": [
        {
          "internalType": "uint256",
          "name": "",
          "type": "uint256"
        }
      ],
      "name": "stakerAddressList",
      "outputs": [
        {
          "internalType": "address",
          "name": "",
          "type": "address"
        }
      ],
      "stateMutability": "view",
      "type": "function"
    },
    {
      "inputs": [],
      "name": "totalDistributedRewardBfc",
      "outputs": [
        {
          "internalType": "uint256",
          "name": "",
          "type": "uint256"
        }
      ],
      "stateMutability": "view",
      "type": "function"
    },
    {
      "inputs": [],
      "name": "totalStakedAmount",
      "outputs": [
        {
          "internalType": "uint256",
          "name": "",
          "type": "uint256"
        }
      ],
      "stateMutability": "view",
      "type": "function"
    },
    {
      "inputs": [
        {
          "internalType": "address",
          "name": "newOwner",
          "type": "address"
        }
      ],
      "name": "transferOwnership",
      "outputs": [],
      "stateMutability": "nonpayable",
      "type": "function"
    },
    {
      "inputs": [
        {
          "internalType": "address",
          "name": "",
          "type": "address"
        }
      ],
      "name": "unstakablePeriod",
      "outputs": [
        {
          "internalType": "uint256",
          "name": "",
          "type": "uint256"
        }
      ],
      "stateMutability": "view",
      "type": "function"
    },
    {
      "inputs": [
        {
          "internalType": "uint256",
          "name": "_amount",
          "type": "uint256"
        }
      ],
      "name": "unstake",
      "outputs": [],
      "stateMutability": "nonpayable",
      "type": "function"
    },
    {
      "inputs": [],
      "name": "unstakePeriod",
      "outputs": [
        {
          "internalType": "uint256",
          "name": "",
          "type": "uint256"
        }
      ],
      "stateMutability": "view",
      "type": "function"
    },
    {
      "inputs": [
        {
          "internalType": "address",
          "name": "",
          "type": "address"
        }
      ],
      "name": "unstakedAmount",
      "outputs": [
        {
          "internalType": "uint256",
          "name": "",
          "type": "uint256"
        }
      ],
      "stateMutability": "view",
      "type": "function"
    }
  ],
  "bytecode": "0x608060405234801561001057600080fd5b50611302806100206000396000f3fe608060405234801561001057600080fd5b50600436106101e55760003560e01c80638da5cb5b1161010f578063b50e931d116100a2578063e4aa64ab11610071578063e4aa64ab146103cd578063eaf74213146103d6578063f2fde38b146103de578063f9931855146103f157600080fd5b8063b50e931d14610397578063c97a184f1461039f578063c9d1a21a146103b2578063d276290d146103c557600080fd5b8063a694fc3a116100de578063a694fc3a1461035f578063a773b09114610372578063ab96324614610385578063b0a9050b1461038e57600080fd5b80638da5cb5b1461031c578063999dd2e51461032d578063a26de1891461034d578063a639a93f1461035657600080fd5b80636045858a1161018757806370aa7a031161015657806370aa7a03146102e5578063715018a6146102f8578063764849a61461030057806378dd33c11461030957600080fd5b80636045858a146102ac5780636327fae1146102cc578063670275fb146102d45780636f138318146102dd57600080fd5b80632e17de78116101c35780632e17de781461026857806332c4e05b1461027d578063485cc95514610290578063567e98f9146102a357600080fd5b806306424bb8146101ea578063128cb0c01461021d57806325cf6f4c1461023d575b600080fd5b61020a6101f83660046110eb565b60696020526000908152604090205481565b6040519081526020015b60405180910390f35b61020a61022b3660046110eb565b606e6020526000908152604090205481565b606554610250906001600160a01b031681565b6040516001600160a01b039091168152602001610214565b61027b61027636600461110d565b610411565b005b61027b61028b36600461110d565b6105b5565b61027b61029e366004611126565b6105c2565b61020a606b5481565b61020a6102ba3660046110eb565b60686020526000908152604090205481565b61027b61073c565b61020a60725481565b61027b610816565b606654610250906001600160a01b031681565b61027b6109b9565b61020a606c5481565b61025061031736600461110d565b6109cd565b6033546001600160a01b0316610250565b61020a61033b3660046110eb565b606f6020526000908152604090205481565b61020a606d5481565b61020a60745481565b61027b61036d36600461110d565b6109f7565b61027b61038036600461110d565b610b07565b61020a60715481565b61020a60735481565b61027b610b14565b61027b6103ad36600461110d565b610b63565b61027b6103c036600461110d565b610b70565b61027b610b7d565b61020a60705481565b61027b610c65565b61027b6103ec3660046110eb565b610e3f565b61020a6103ff3660046110eb565b60676020526000908152604090205481565b336000908152606760205260409020548111156104845760405162461bcd60e51b815260206004820152602660248201527f5374616b6553744266633a20696e73756666696369656e74207374616b656420604482015265185b5bdd5b9d60d21b60648201526084015b60405180910390fd5b336000908152606e6020526040902054156104f15760405162461bcd60e51b815260206004820152602760248201527f5374616b6553744266633a20756e7374616b656420616d6f756e74206e6f742060448201526618db185a5b595960ca1b606482015260840161047b565b336000908152606f60205260409020541561051e5760405162461bcd60e51b815260040161047b90611159565b336000908152606760205260408120805483929061053d9084906111b8565b9250508190555080606b600082825461055691906111b8565b9091555050336000908152606e60205260408120805483929061057a9084906111cb565b909155505060705461058c90426111cb565b336000908152606f60205260409020556070546105b2906105ad90426111cb565b610eb5565b50565b6105bd610efa565b606d55565b600054610100900460ff16158080156105e25750600054600160ff909116105b806105fc5750303b1580156105fc575060005460ff166001145b61065f5760405162461bcd60e51b815260206004820152602e60248201527f496e697469616c697a61626c653a20636f6e747261637420697320616c72656160448201526d191e481a5b9a5d1a585b1a5e995960921b606482015260840161047b565b6000805460ff191660011790558015610682576000805461ff0019166101001790555b61068a610f54565b606580546001600160a01b038086166001600160a01b03199283161790925560668054928516929091169190911790556000606b819055610e106070819055606c91909155607381905542607481905569021e19e0c9bab2400000606d556071919091556072558015610737576000805461ff0019169055604051600181527f7f26b83ff96e1f2b6a682f133852f6798a09c465da95921460cefb38474024989060200160405180910390a15b505050565b336000818152606960205260408082208054929055606654905163a9059cbb60e01b815260048101939093526024830182905290916001600160a01b039091169063a9059cbb906044015b6020604051808303816000875af11580156107a6573d6000803e3d6000fd5b505050506040513d601f19601f820116820180604052508101906107ca91906111de565b6105b25760405162461bcd60e51b815260206004820152601b60248201527f5374616b6553744266633a207472616e73666572206661696c65640000000000604482015260640161047b565b60715460725461082690426111b8565b10156108875760405162461bcd60e51b815260206004820152602a60248201527f5374616b6553744266633a20424c4b206d696e74696e6720706572696f64206e6044820152691bdd081c995858da195960b21b606482015260840161047b565b606d54606554604051630f38ca0d60e31b8152306004820152602481018390526001600160a01b03909116906379c6506890604401600060405180830381600087803b1580156108d657600080fd5b505af11580156108ea573d6000803e3d6000fd5b5050505060005b606a548110156109b157606b5460676000606a848154811061091557610915611200565b60009182526020808320909101546001600160a01b031683528201929092526040019020546109449084611216565b61094e919061122d565b60686000606a848154811061096557610965611200565b60009182526020808320909101546001600160a01b03168352820192909252604001812080549091906109999084906111cb565b909155508190506109a98161124f565b9150506108f1565b505042607255565b6109c1610efa565b6109cb6000610f83565b565b606a81815481106109dd57600080fd5b6000918252602090912001546001600160a01b0316905081565b6066546040516323b872dd60e01b8152336004820152306024820152604481018390526001600160a01b03909116906323b872dd906064016020604051808303816000875af1158015610a4e573d6000803e3d6000fd5b505050506040513d601f19601f82011682018060405250810190610a7291906111de565b610abe5760405162461bcd60e51b815260206004820152601f60248201527f5374616b6553744266633a207472616e7366657246726f6d206661696c656400604482015260640161047b565b3360009081526067602052604081208054839290610add9084906111cb565b9250508190555080606b6000828254610af691906111cb565b909155506105b29050606a33610fd5565b610b0f610efa565b607155565b336000818152606860205260408082208054929055606554905163a9059cbb60e01b815260048101939093526024830182905290916001600160a01b039091169063a9059cbb90604401610787565b610b6b610efa565b607055565b610b78610efa565b607355565b336000908152606e6020526040902054610bd95760405162461bcd60e51b815260206004820152601e60248201527f5374616b6553744266633a206e6f20756e7374616b656420616d6f756e740000604482015260640161047b565b336000908152606f6020526040902054421015610c085760405162461bcd60e51b815260040161047b90611159565b336000818152606e60209081526040808320805490849055606f90925280832092909255606654915163a9059cbb60e01b8152600481019390935260248301819052916001600160a01b039091169063a9059cbb90604401610787565b607354607454610c7590426111b8565b1015610cd65760405162461bcd60e51b815260206004820152602a60248201527f5374616b6553744266633a20424643206d696e74696e6720706572696f64206e6044820152691bdd081c995858da195960b21b606482015260840161047b565b606c54606b546066546040516370a0823160e01b815230600482015260009392916001600160a01b0316906370a0823190602401602060405180830381865afa158015610d27573d6000803e3d6000fd5b505050506040513d601f19601f82011682018060405250810190610d4b9190611268565b610d5591906111b8565b610d5f91906111b8565b905060005b606a54811015610e2457606b5460676000606a8481548110610d8857610d88611200565b60009182526020808320909101546001600160a01b03168352820192909252604001902054610db79084611216565b610dc1919061122d565b60696000606a8481548110610dd857610dd8611200565b60009182526020808320909101546001600160a01b0316835282019290925260400181208054909190610e0c9084906111cb565b90915550819050610e1c8161124f565b915050610d64565b5080606c6000828254610e3791906111cb565b909155505050565b610e47610efa565b6001600160a01b038116610eac5760405162461bcd60e51b815260206004820152602660248201527f4f776e61626c653a206e6577206f776e657220697320746865207a65726f206160448201526564647265737360d01b606482015260840161047b565b6105b281610f83565b6105b281604051602401610ecb91815260200190565b60408051601f198184030181529190526020810180516001600160e01b031663f82c50f160e01b179052611013565b6033546001600160a01b031633146109cb5760405162461bcd60e51b815260206004820181905260248201527f4f776e61626c653a2063616c6c6572206973206e6f7420746865206f776e6572604482015260640161047b565b600054610100900460ff16610f7b5760405162461bcd60e51b815260040161047b90611281565b6109cb611034565b603380546001600160a01b038381166001600160a01b0319831681179093556040519116919082907f8be0079c531659141344cd1fd0a4f28419497f9722a3daafe3b4186f6b6457e090600090a35050565b610fdf8282611064565b61100f5781546001810183556000838152602090200180546001600160a01b0319166001600160a01b0383161790555b5050565b80516a636f6e736f6c652e6c6f67602083016000808483855afa5050505050565b600054610100900460ff1661105b5760405162461bcd60e51b815260040161047b90611281565b6109cb33610f83565b6000805b83548110156110c357826001600160a01b031684828154811061108d5761108d611200565b6000918252602090912001546001600160a01b0316036110b15760019150506110c9565b806110bb8161124f565b915050611068565b50600090505b92915050565b80356001600160a01b03811681146110e657600080fd5b919050565b6000602082840312156110fd57600080fd5b611106826110cf565b9392505050565b60006020828403121561111f57600080fd5b5035919050565b6000806040838503121561113957600080fd5b611142836110cf565b9150611150602084016110cf565b90509250929050565b60208082526029908201527f5374616b6553744266633a20756e7374616b61626c6520706572696f64206e6f6040820152681d081c995858da195960ba1b606082015260800190565b634e487b7160e01b600052601160045260246000fd5b818103818111156110c9576110c96111a2565b808201808211156110c9576110c96111a2565b6000602082840312156111f057600080fd5b8151801515811461110657600080fd5b634e487b7160e01b600052603260045260246000fd5b80820281158282048414176110c9576110c96111a2565b60008261124a57634e487b7160e01b600052601260045260246000fd5b500490565b600060018201611261576112616111a2565b5060010190565b60006020828403121561127a57600080fd5b5051919050565b6020808252602b908201527f496e697469616c697a61626c653a20636f6e7472616374206973206e6f74206960408201526a6e697469616c697a696e6760a81b60608201526080019056fea264697066735822122001d01ff1f1b9eac2ae1896eeabc0635648c4e1783806bfa90a072faafd8af23564736f6c63430008120033",
  "linkReferences": {},
  "deployedLinkReferences": {}
}