{
  "_format": "hh-sol-artifact-1",
  "contractName": "StBFC",
  "sourceName": "contracts/tokens/StBFC.sol",
  "abi": [
    {
      "anonymous": false,
      "inputs": [
        {
          "indexed": true,
          "internalType": "address",
          "name": "owner",
          "type": "address"
        },
        {
          "indexed": true,
          "internalType": "address",
          "name": "spender",
          "type": "address"
        },
        {
          "indexed": false,
          "internalType": "uint256",
          "name": "value",
          "type": "uint256"
        }
      ],
      "name": "Approval",
      "type": "event"
    },
    {
      "anonymous": false,
      "inputs": [
        {
          "indexed": false,
          "internalType": "uint8",
          "name": "version",
          "type": "uint8"
        }
      ],
      "name": "Initialized",
      "type": "event"
    },
    {
      "anonymous": false,
      "inputs": [
        {
          "indexed": true,
          "internalType": "address",
          "name": "previousOwner",
          "type": "address"
        },
        {
          "indexed": true,
          "internalType": "address",
          "name": "newOwner",
          "type": "address"
        }
      ],
      "name": "OwnershipTransferred",
      "type": "event"
    },
    {
      "anonymous": false,
      "inputs": [
        {
          "indexed": true,
          "internalType": "address",
          "name": "from",
          "type": "address"
        },
        {
          "indexed": true,
          "internalType": "address",
          "name": "to",
          "type": "address"
        },
        {
          "indexed": false,
          "internalType": "uint256",
          "name": "value",
          "type": "uint256"
        }
      ],
      "name": "Transfer",
      "type": "event"
    },
    {
      "inputs": [
        {
          "internalType": "address",
          "name": "owner",
          "type": "address"
        },
        {
          "internalType": "address",
          "name": "spender",
          "type": "address"
        }
      ],
      "name": "allowance",
      "outputs": [
        {
          "internalType": "uint256",
          "name": "",
          "type": "uint256"
        }
      ],
      "stateMutability": "view",
      "type": "function"
    },
    {
      "inputs": [
        {
          "internalType": "address",
          "name": "spender",
          "type": "address"
        },
        {
          "internalType": "uint256",
          "name": "amount",
          "type": "uint256"
        }
      ],
      "name": "approve",
      "outputs": [
        {
          "internalType": "bool",
          "name": "",
          "type": "bool"
        }
      ],
      "stateMutability": "nonpayable",
      "type": "function"
    },
    {
      "inputs": [
        {
          "internalType": "address",
          "name": "account",
          "type": "address"
        }
      ],
      "name": "balanceOf",
      "outputs": [
        {
          "internalType": "uint256",
          "name": "",
          "type": "uint256"
        }
      ],
      "stateMutability": "view",
      "type": "function"
    },
    {
      "inputs": [
        {
          "internalType": "address",
          "name": "_account",
          "type": "address"
        },
        {
          "internalType": "uint256",
          "name": "_amount",
          "type": "uint256"
        }
      ],
      "name": "burnToken",
      "outputs": [],
      "stateMutability": "nonpayable",
      "type": "function"
    },
    {
      "inputs": [],
      "name": "decimals",
      "outputs": [
        {
          "internalType": "uint8",
          "name": "",
          "type": "uint8"
        }
      ],
      "stateMutability": "view",
      "type": "function"
    },
    {
      "inputs": [
        {
          "internalType": "address",
          "name": "spender",
          "type": "address"
        },
        {
          "internalType": "uint256",
          "name": "subtractedValue",
          "type": "uint256"
        }
      ],
      "name": "decreaseAllowance",
      "outputs": [
        {
          "internalType": "bool",
          "name": "",
          "type": "bool"
        }
      ],
      "stateMutability": "nonpayable",
      "type": "function"
    },
    {
      "inputs": [],
      "name": "getStBfcHolders",
      "outputs": [
        {
          "internalType": "address[]",
          "name": "",
          "type": "address[]"
        }
      ],
      "stateMutability": "view",
      "type": "function"
    },
    {
      "inputs": [
        {
          "internalType": "address",
          "name": "spender",
          "type": "address"
        },
        {
          "internalType": "uint256",
          "name": "addedValue",
          "type": "uint256"
        }
      ],
      "name": "increaseAllowance",
      "outputs": [
        {
          "internalType": "bool",
          "name": "",
          "type": "bool"
        }
      ],
      "stateMutability": "nonpayable",
      "type": "function"
    },
    {
      "inputs": [],
      "name": "initialize",
      "outputs": [],
      "stateMutability": "nonpayable",
      "type": "function"
    },
    {
      "inputs": [],
      "name": "liquidStakingAddress",
      "outputs": [
        {
          "internalType": "address",
          "name": "",
          "type": "address"
        }
      ],
      "stateMutability": "view",
      "type": "function"
    },
    {
      "inputs": [
        {
          "internalType": "address",
          "name": "_account",
          "type": "address"
        },
        {
          "internalType": "uint256",
          "name": "_amount",
          "type": "uint256"
        }
      ],
      "name": "mintToken",
      "outputs": [],
      "stateMutability": "nonpayable",
      "type": "function"
    },
    {
      "inputs": [],
      "name": "name",
      "outputs": [
        {
          "internalType": "string",
          "name": "",
          "type": "string"
        }
      ],
      "stateMutability": "view",
      "type": "function"
    },
    {
      "inputs": [],
      "name": "owner",
      "outputs": [
        {
          "internalType": "address",
          "name": "",
          "type": "address"
        }
      ],
      "stateMutability": "view",
      "type": "function"
    },
    {
      "inputs": [],
      "name": "renounceOwnership",
      "outputs": [],
      "stateMutability": "nonpayable",
      "type": "function"
    },
    {
      "inputs": [
        {
          "internalType": "address",
          "name": "_liquidStakingAddr",
          "type": "address"
        }
      ],
      "name": "setLiquidStakingAddress",
      "outputs": [],
      "stateMutability": "nonpayable",
      "type": "function"
    },
    {
      "inputs": [
        {
          "internalType": "uint256",
          "name": "",
          "type": "uint256"
        }
      ],
      "name": "stBFCHolders",
      "outputs": [
        {
          "internalType": "address",
          "name": "",
          "type": "address"
        }
      ],
      "stateMutability": "view",
      "type": "function"
    },
    {
      "inputs": [],
      "name": "symbol",
      "outputs": [
        {
          "internalType": "string",
          "name": "",
          "type": "string"
        }
      ],
      "stateMutability": "view",
      "type": "function"
    },
    {
      "inputs": [],
      "name": "totalSupply",
      "outputs": [
        {
          "internalType": "uint256",
          "name": "",
          "type": "uint256"
        }
      ],
      "stateMutability": "view",
      "type": "function"
    },
    {
      "inputs": [
        {
          "internalType": "address",
          "name": "to",
          "type": "address"
        },
        {
          "internalType": "uint256",
          "name": "amount",
          "type": "uint256"
        }
      ],
      "name": "transfer",
      "outputs": [
        {
          "internalType": "bool",
          "name": "",
          "type": "bool"
        }
      ],
      "stateMutability": "nonpayable",
      "type": "function"
    },
    {
      "inputs": [
        {
          "internalType": "address",
          "name": "from",
          "type": "address"
        },
        {
          "internalType": "address",
          "name": "to",
          "type": "address"
        },
        {
          "internalType": "uint256",
          "name": "amount",
          "type": "uint256"
        }
      ],
      "name": "transferFrom",
      "outputs": [
        {
          "internalType": "bool",
          "name": "",
          "type": "bool"
        }
      ],
      "stateMutability": "nonpayable",
      "type": "function"
    },
    {
      "inputs": [
        {
          "internalType": "address",
          "name": "newOwner",
          "type": "address"
        }
      ],
      "name": "transferOwnership",
      "outputs": [],
      "stateMutability": "nonpayable",
      "type": "function"
    }
  ],
  "bytecode": "0x608060405234801561001057600080fd5b5061134f806100206000396000f3fe608060405234801561001057600080fd5b50600436106101375760003560e01c806379c65068116100b8578063a9059cbb1161007c578063a9059cbb1461027c578063c4148e2f1461028f578063d1df306c146102a2578063dd62ed3e146102b5578063eef00da5146102c8578063f2fde38b146102dd57600080fd5b806379c65068146102355780638129fc1c146102485780638da5cb5b1461025057806395d89b4114610261578063a457c2d71461026957600080fd5b8063313ce567116100ff578063313ce567146101b757806339509351146101c657806370a08231146101d9578063715018a614610202578063749b3f221461020a57600080fd5b806306fdde031461013c578063095ea7b31461015a57806315d250461461017d57806318160ddd1461019257806323b872dd146101a4575b600080fd5b6101446102f0565b6040516101519190610f3d565b60405180910390f35b61016d610168366004610fa7565b610382565b6040519015158152602001610151565b61019061018b366004610fd1565b61039c565b005b6035545b604051908152602001610151565b61016d6101b2366004610ff3565b6103c6565b60405160128152602001610151565b61016d6101d4366004610fa7565b6103f5565b6101966101e7366004610fd1565b6001600160a01b031660009081526033602052604090205490565b610190610417565b60975461021d906001600160a01b031681565b6040516001600160a01b039091168152602001610151565b610190610243366004610fa7565b61042b565b610190610477565b6065546001600160a01b031661021d565b6101446105da565b61016d610277366004610fa7565b6105e9565b61016d61028a366004610fa7565b610664565b61021d61029d36600461102f565b61067d565b6101906102b0366004610fa7565b6106a7565b6101966102c3366004611048565b6106db565b6102d0610706565b604051610151919061107b565b6101906102eb366004610fd1565b610767565b6060603680546102ff906110c8565b80601f016020809104026020016040519081016040528092919081815260200182805461032b906110c8565b80156103785780601f1061034d57610100808354040283529160200191610378565b820191906000526020600020905b81548152906001019060200180831161035b57829003601f168201915b5050505050905090565b6000336103908185856107dd565b60019150505b92915050565b6103a4610902565b609780546001600160a01b0319166001600160a01b0392909216919091179055565b6000336103d485828561095c565b6103df8585856109d6565b6103ea609885610b81565b506001949350505050565b60003361039081858561040883836106db565b6104129190611118565b6107dd565b61041f610902565b6104296000610bc0565b565b6097546001600160a01b0316331461045e5760405162461bcd60e51b81526004016104559061112b565b60405180910390fd5b6104688282610c12565b610473609883610b81565b5050565b600054610100900460ff16158080156104975750600054600160ff909116105b806104b15750303b1580156104b1575060005460ff166001145b6105145760405162461bcd60e51b815260206004820152602e60248201527f496e697469616c697a61626c653a20636f6e747261637420697320616c72656160448201526d191e481a5b9a5d1a585b1a5e995960921b6064820152608401610455565b6000805460ff191660011790558015610537576000805461ff0019166101001790555b6105896040518060400160405280601381526020017229ba30b5b2902134b33937b9ba102a37b5b2b760691b81525060405180604001604052806005815260200164737442464360d81b815250610cd3565b610591610d04565b80156105d7576000805461ff0019169055604051600181527f7f26b83ff96e1f2b6a682f133852f6798a09c465da95921460cefb38474024989060200160405180910390a15b50565b6060603780546102ff906110c8565b600033816105f782866106db565b9050838110156106575760405162461bcd60e51b815260206004820152602560248201527f45524332303a2064656372656173656420616c6c6f77616e63652062656c6f77604482015264207a65726f60d81b6064820152608401610455565b6103ea82868684036107dd565b6000336106728185856109d6565b610390609885610b81565b6098818154811061068d57600080fd5b6000918252602090912001546001600160a01b0316905081565b6097546001600160a01b031633146106d15760405162461bcd60e51b81526004016104559061112b565b6104738282610d33565b6001600160a01b03918216600090815260346020908152604080832093909416825291909152205490565b6060609880548060200260200160405190810160405280929190818152602001828054801561037857602002820191906000526020600020905b81546001600160a01b03168152600190910190602001808311610740575050505050905090565b61076f610902565b6001600160a01b0381166107d45760405162461bcd60e51b815260206004820152602660248201527f4f776e61626c653a206e6577206f776e657220697320746865207a65726f206160448201526564647265737360d01b6064820152608401610455565b6105d781610bc0565b6001600160a01b03831661083f5760405162461bcd60e51b8152602060048201526024808201527f45524332303a20617070726f76652066726f6d20746865207a65726f206164646044820152637265737360e01b6064820152608401610455565b6001600160a01b0382166108a05760405162461bcd60e51b815260206004820152602260248201527f45524332303a20617070726f766520746f20746865207a65726f206164647265604482015261737360f01b6064820152608401610455565b6001600160a01b0383811660008181526034602090815260408083209487168084529482529182902085905590518481527f8c5be1e5ebec7d5bd14f71427d1e84f3dd0314c0f7b2291e5b200ac8c7c3b92591015b60405180910390a3505050565b6065546001600160a01b031633146104295760405162461bcd60e51b815260206004820181905260248201527f4f776e61626c653a2063616c6c6572206973206e6f7420746865206f776e65726044820152606401610455565b600061096884846106db565b905060001981146109d057818110156109c35760405162461bcd60e51b815260206004820152601d60248201527f45524332303a20696e73756666696369656e7420616c6c6f77616e63650000006044820152606401610455565b6109d084848484036107dd565b50505050565b6001600160a01b038316610a3a5760405162461bcd60e51b815260206004820152602560248201527f45524332303a207472616e736665722066726f6d20746865207a65726f206164604482015264647265737360d81b6064820152608401610455565b6001600160a01b038216610a9c5760405162461bcd60e51b815260206004820152602360248201527f45524332303a207472616e7366657220746f20746865207a65726f206164647260448201526265737360e81b6064820152608401610455565b6001600160a01b03831660009081526033602052604090205481811015610b145760405162461bcd60e51b815260206004820152602660248201527f45524332303a207472616e7366657220616d6f756e7420657863656564732062604482015265616c616e636560d01b6064820152608401610455565b6001600160a01b0380851660008181526033602052604080822086860390559286168082529083902080548601905591517fddf252ad1be2c89b69c2b068fc378daa952ba7f163c4a11628f55a4df523b3ef90610b749086815260200190565b60405180910390a36109d0565b610b8b8282610e64565b6104735781546001810183556000838152602090200180546001600160a01b0383166001600160a01b03199091161790555050565b606580546001600160a01b038381166001600160a01b0319831681179093556040519116919082907f8be0079c531659141344cd1fd0a4f28419497f9722a3daafe3b4186f6b6457e090600090a35050565b6001600160a01b038216610c685760405162461bcd60e51b815260206004820152601f60248201527f45524332303a206d696e7420746f20746865207a65726f2061646472657373006044820152606401610455565b8060356000828254610c7a9190611118565b90915550506001600160a01b0382166000818152603360209081526040808320805486019055518481527fddf252ad1be2c89b69c2b068fc378daa952ba7f163c4a11628f55a4df523b3ef910160405180910390a35050565b600054610100900460ff16610cfa5760405162461bcd60e51b81526004016104559061117b565b6104738282610ecd565b600054610100900460ff16610d2b5760405162461bcd60e51b81526004016104559061117b565b610429610f0d565b6001600160a01b038216610d935760405162461bcd60e51b815260206004820152602160248201527f45524332303a206275726e2066726f6d20746865207a65726f206164647265736044820152607360f81b6064820152608401610455565b6001600160a01b03821660009081526033602052604090205481811015610e075760405162461bcd60e51b815260206004820152602260248201527f45524332303a206275726e20616d6f756e7420657863656564732062616c616e604482015261636560f01b6064820152608401610455565b6001600160a01b03831660008181526033602090815260408083208686039055603580548790039055518581529192917fddf252ad1be2c89b69c2b068fc378daa952ba7f163c4a11628f55a4df523b3ef91016108f5565b505050565b6000805b8354811015610ec357826001600160a01b0316848281548110610e8d57610e8d6111c6565b6000918252602090912001546001600160a01b031603610eb1576001915050610396565b80610ebb816111dc565b915050610e68565b5060009392505050565b600054610100900460ff16610ef45760405162461bcd60e51b81526004016104559061117b565b6036610f008382611259565b506037610e5f8282611259565b600054610100900460ff16610f345760405162461bcd60e51b81526004016104559061117b565b61042933610bc0565b600060208083528351808285015260005b81811015610f6a57858101830151858201604001528201610f4e565b506000604082860101526040601f19601f8301168501019250505092915050565b80356001600160a01b0381168114610fa257600080fd5b919050565b60008060408385031215610fba57600080fd5b610fc383610f8b565b946020939093013593505050565b600060208284031215610fe357600080fd5b610fec82610f8b565b9392505050565b60008060006060848603121561100857600080fd5b61101184610f8b565b925061101f60208501610f8b565b9150604084013590509250925092565b60006020828403121561104157600080fd5b5035919050565b6000806040838503121561105b57600080fd5b61106483610f8b565b915061107260208401610f8b565b90509250929050565b6020808252825182820181905260009190848201906040850190845b818110156110bc5783516001600160a01b031683529284019291840191600101611097565b50909695505050505050565b600181811c908216806110dc57607f821691505b6020821081036110fc57634e487b7160e01b600052602260045260246000fd5b50919050565b634e487b7160e01b600052601160045260246000fd5b8082018082111561039657610396611102565b60208082526030908201527f53744246433a2063616c6c6572206973206e6f7420746865206c69717569642060408201526f1cdd185ada5b99c818dbdb9d1c9858dd60821b606082015260800190565b6020808252602b908201527f496e697469616c697a61626c653a20636f6e7472616374206973206e6f74206960408201526a6e697469616c697a696e6760a81b606082015260800190565b634e487b7160e01b600052603260045260246000fd5b6000600182016111ee576111ee611102565b5060010190565b634e487b7160e01b600052604160045260246000fd5b601f821115610e5f57600081815260208120601f850160051c810160208610156112325750805b601f850160051c820191505b818110156112515782815560010161123e565b505050505050565b815167ffffffffffffffff811115611273576112736111f5565b6112878161128184546110c8565b8461120b565b602080601f8311600181146112bc57600084156112a45750858301515b600019600386901b1c1916600185901b178555611251565b600085815260208120601f198616915b828110156112eb578886015182559484019460019091019084016112cc565b50858210156113095787850151600019600388901b60f8161c191681555b5050505050600190811b0190555056fea26469706673582212207521845eeae9dfe352e59e3190022658b56bf06a1f0b1a3b85f47c1ced0803ec64736f6c63430008120033",
  "linkReferences": {},
  "deployedLinkReferences": {}
}